{"abi":[{"type":"constructor","inputs":[],"stateMutability":"nonpayable"},{"type":"receive","stateMutability":"payable"},{"type":"function","name":"DOMAIN_SEPARATOR","inputs":[],"outputs":[{"name":"","type":"bytes32","internalType":"bytes32"}],"stateMutability":"view"},{"type":"function","name":"__OFF_CHAIN__hash_config","inputs":[{"name":"config","type":"tuple","internalType":"struct Config","components":[{"name":"chain_id","type":"uint256","internalType":"uint256"},{"name":"timestamp","type":"uint256","internalType":"uint256"},{"name":"addresses","type":"tuple[]","internalType":"struct AddressEntry[]","components":[{"name":"key","type":"string","internalType":"string"},{"name":"value","type":"address","internalType":"address"}]},{"name":"bytes32s","type":"tuple[]","internalType":"struct Bytes32Entry[]","components":[{"name":"key","type":"string","internalType":"string"},{"name":"value","type":"bytes32","internalType":"bytes32"}]},{"name":"uints","type":"tuple[]","internalType":"struct UintEntry[]","components":[{"name":"key","type":"string","internalType":"string"},{"name":"value","type":"uint256","internalType":"uint256"}]}]}],"outputs":[{"name":"digest","type":"bytes32","internalType":"bytes32"}],"stateMutability":"view"},{"type":"function","name":"eip712Domain","inputs":[],"outputs":[{"name":"fields","type":"bytes1","internalType":"bytes1"},{"name":"name","type":"string","internalType":"string"},{"name":"version","type":"string","internalType":"string"},{"name":"chainId","type":"uint256","internalType":"uint256"},{"name":"verifyingContract","type":"address","internalType":"address"},{"name":"salt","type":"bytes32","internalType":"bytes32"},{"name":"extensions","type":"uint256[]","internalType":"uint256[]"}],"stateMutability":"view"},{"type":"function","name":"read_address","inputs":[{"name":"signer","type":"address","internalType":"address"},{"name":"key","type":"bytes32","internalType":"bytes32"}],"outputs":[{"name":"value","type":"address","internalType":"address"}],"stateMutability":"view"},{"type":"function","name":"read_address","inputs":[{"name":"signer","type":"address","internalType":"address"},{"name":"key","type":"string","internalType":"string"}],"outputs":[{"name":"value","type":"address","internalType":"address"}],"stateMutability":"view"},{"type":"function","name":"read_bytes32","inputs":[{"name":"signer","type":"address","internalType":"address"},{"name":"key","type":"bytes32","internalType":"bytes32"}],"outputs":[{"name":"value","type":"bytes32","internalType":"bytes32"}],"stateMutability":"view"},{"type":"function","name":"read_bytes32","inputs":[{"name":"signer","type":"address","internalType":"address"},{"name":"key","type":"string","internalType":"string"}],"outputs":[{"name":"value","type":"bytes32","internalType":"bytes32"}],"stateMutability":"view"},{"type":"function","name":"read_uint","inputs":[{"name":"signer","type":"address","internalType":"address"},{"name":"key","type":"string","internalType":"string"}],"outputs":[{"name":"value","type":"uint256","internalType":"uint256"}],"stateMutability":"view"},{"type":"function","name":"read_uint","inputs":[{"name":"signer","type":"address","internalType":"address"},{"name":"key","type":"bytes32","internalType":"bytes32"}],"outputs":[{"name":"value","type":"uint256","internalType":"uint256"}],"stateMutability":"view"},{"type":"function","name":"write_config","inputs":[{"name":"config","type":"tuple","internalType":"struct Config","components":[{"name":"chain_id","type":"uint256","internalType":"uint256"},{"name":"timestamp","type":"uint256","internalType":"uint256"},{"name":"addresses","type":"tuple[]","internalType":"struct AddressEntry[]","components":[{"name":"key","type":"string","internalType":"string"},{"name":"value","type":"address","internalType":"address"}]},{"name":"bytes32s","type":"tuple[]","internalType":"struct Bytes32Entry[]","components":[{"name":"key","type":"string","internalType":"string"},{"name":"value","type":"bytes32","internalType":"bytes32"}]},{"name":"uints","type":"tuple[]","internalType":"struct UintEntry[]","components":[{"name":"key","type":"string","internalType":"string"},{"name":"value","type":"uint256","internalType":"uint256"}]}]}],"outputs":[],"stateMutability":"nonpayable"},{"type":"function","name":"write_config_as","inputs":[{"name":"config","type":"tuple","internalType":"struct Config","components":[{"name":"chain_id","type":"uint256","internalType":"uint256"},{"name":"timestamp","type":"uint256","internalType":"uint256"},{"name":"addresses","type":"tuple[]","internalType":"struct AddressEntry[]","components":[{"name":"key","type":"string","internalType":"string"},{"name":"value","type":"address","internalType":"address"}]},{"name":"bytes32s","type":"tuple[]","internalType":"struct Bytes32Entry[]","components":[{"name":"key","type":"string","internalType":"string"},{"name":"value","type":"bytes32","internalType":"bytes32"}]},{"name":"uints","type":"tuple[]","internalType":"struct UintEntry[]","components":[{"name":"key","type":"string","internalType":"string"},{"name":"value","type":"uint256","internalType":"uint256"}]}]},{"name":"signer","type":"address","internalType":"address"},{"name":"signature","type":"bytes","internalType":"bytes"},{"name":"is_eip1271","type":"bool","internalType":"bool"}],"outputs":[],"stateMutability":"nonpayable"},{"type":"event","name":"AddressWritten","inputs":[{"name":"signer","type":"address","indexed":true,"internalType":"address"},{"name":"key","type":"bytes32","indexed":true,"internalType":"bytes32"},{"name":"value","type":"address","indexed":false,"internalType":"address"}],"anonymous":false},{"type":"event","name":"Bytes32Written","inputs":[{"name":"signer","type":"address","indexed":true,"internalType":"address"},{"name":"key","type":"bytes32","indexed":true,"internalType":"bytes32"},{"name":"value","type":"bytes32","indexed":false,"internalType":"bytes32"}],"anonymous":false},{"type":"event","name":"EIP712DomainChanged","inputs":[],"anonymous":false},{"type":"event","name":"UintWritten","inputs":[{"name":"signer","type":"address","indexed":true,"internalType":"address"},{"name":"key","type":"bytes32","indexed":true,"internalType":"bytes32"},{"name":"value","type":"uint256","indexed":false,"internalType":"uint256"}],"anonymous":false},{"type":"error","name":"ChainIdMismatch","inputs":[{"name":"signed_chain_id","type":"uint256","internalType":"uint256"},{"name":"block_chain_id","type":"uint256","internalType":"uint256"}]},{"type":"error","name":"EmptyConfig","inputs":[]},{"type":"error","name":"EmptyKey","inputs":[]},{"type":"error","name":"InvalidShortString","inputs":[]},{"type":"error","name":"InvalidSignature","inputs":[{"name":"signer","type":"address","internalType":"address"},{"name":"digest","type":"bytes32","internalType":"bytes32"},{"name":"signature","type":"bytes","internalType":"bytes"}]},{"type":"error","name":"KeyNotSet","inputs":[{"name":"signer","type":"address","internalType":"address"},{"name":"key","type":"bytes32","internalType":"bytes32"}]},{"type":"error","name":"KeyTooLong","inputs":[{"name":"key","type":"string","internalType":"string"},{"name":"length","type":"uint256","internalType":"uint256"}]},{"type":"error","name":"KeyTypeMismatch","inputs":[{"name":"signer","type":"address","internalType":"address"},{"name":"key","type":"bytes32","internalType":"bytes32"},{"name":"current_value_type","type":"uint8","internalType":"enum ValueType"},{"name":"expected_value_type","type":"uint8","internalType":"enum ValueType"}]},{"type":"error","name":"StaleConfig","inputs":[{"name":"signer","type":"address","internalType":"address"},{"name":"key","type":"bytes32","internalType":"bytes32"},{"name":"signed_timestamp","type":"uint256","internalType":"uint256"},{"name":"prev_timestamp","type":"uint256","internalType":"uint256"}]},{"type":"error","name":"StringTooLong","inputs":[{"name":"str","type":"string","internalType":"string"}]},{"type":"error","name":"TimestampInFuture","inputs":[{"name":"signed_timestamp","type":"uint256","internalType":"uint256"},{"name":"block_timestamp","type":"uint256","internalType":"uint256"}]}],"bytecode":{"object":"0x6101606040523461012b57604051610018604082610130565b600b815260208101906a436861696e436f6e66696760a81b825260405191610041604084610130565b600183526020830191603160f81b835261005a81610169565b6101205261006784610338565b61014052519020918260e05251902080610100524660a0526040519060208201927f8b73c3c69bb8fe3d512ecc4cf759cc79239f7b179b0ffacaa9a75d522b39400f8452604083015260608201524660808201523060a082015260a081526100d060c082610130565b5190206080523060c052604051611bb490816104e4823960805181611139015260a051816111f6015260c0518161110a015260e05181611188015261010051816111ae015261012051816102220152610140518161024b0152f35b600080fd5b601f909101601f19168101906001600160401b0382119082101761015357604052565b634e487b7160e01b600052604160045260246000fd5b90815160208110600014610201575090601f8151116101a5576020815191015160208210610195571790565b6000198260200360031b1b161790565b6040519063305a27a960e01b8252602060048301528181519182602483015260005b8381106101e95750508160006044809484010152601f80199101168101030190fd5b602082820181015160448784010152859350016101c7565b6001600160401b03811161015357600054600181811c9116801561032e575b602082101461031857601f81116102d6575b50602092601f82116001146102725792819293600092610267575b50508160011b916000199060031b1c19161760005560ff90565b01519050388061024d565b601f1982169360008052806000209160005b8681106102be57508360019596106102a5575b505050811b0160005560ff90565b015160001960f88460031b161c19169055388080610297565b91926020600181928685015181550194019201610284565b8181111561023257600080526020600020601f80840160051c809201920160051c039060005b82811061030a575050610232565b6000828201556001016102fc565b634e487b7160e01b600052602260045260246000fd5b90607f1690610220565b908151602081106000146103c0575090601f815111610364576020815191015160208210610195571790565b6040519063305a27a960e01b8252602060048301528181519182602483015260005b8381106103a85750508160006044809484010152601f80199101168101030190fd5b60208282018101516044878401015285935001610386565b6001600160401b03811161015357600154600181811c911680156104d9575b602082101461031857601f8111610496575b50602092601f82116001146104315792819293600092610426575b50508160011b916000199060031b1c19161760015560ff90565b01519050388061040c565b601f198216936001600052806000209160005b86811061047e5750836001959610610465575b505050811b0160015560ff90565b015160001960f88460031b161c19169055388080610457565b91926020600181928685015181550194019201610444565b818111156103f15760016000526020600020601f80840160051c809201920160051c039060005b8281106104cb5750506103f1565b6000828201556001016104bd565b90607f16906103df56fe60806040526004361015610077575b361561001957600080fd5b60646040517f08c379a000000000000000000000000000000000000000000000000000000000815260206004820152601c60248201527f446972656374207472616e7366657273206e6f7420616c6c6f776564000000006044820152fd5b60003560e01c80630349a4a8146104f357806306631b68146104d757806335ca51e6146104bf5780633644e5151461048657806346a3c3bb146103425780635ec5d8601461032257806384b0196e146101eb578063905a787d146101cf578063c0ae5c861461018a578063db6be1e4146101475763dd6d12500361000e57346101425760407ffffffffffffffffffffffffffffffffffffffffffffffffffffffffffffffffc36011261014257602061013a610131610538565b602435906109f6565b604051908152f35b600080fd5b3461014257602061016c61016661015d36610589565b90929192610ad6565b90610927565b73ffffffffffffffffffffffffffffffffffffffff60405191168152f35b346101425760407ffffffffffffffffffffffffffffffffffffffffffffffffffffffffffffffffc36011261014257602061016c6101c6610538565b60243590610927565b3461014257602061013a6101e561015d36610589565b906106c6565b346101425760007ffffffffffffffffffffffffffffffffffffffffffffffffffffffffffffffffc360112610142576102c46102467f00000000000000000000000000000000000000000000000000000000000000006116f2565b61026f7f000000000000000000000000000000000000000000000000000000000000000061188a565b60206102d260405192610282838561082a565b6000845260003681376040519586957f0f00000000000000000000000000000000000000000000000000000000000000875260e08588015260e0870190610667565b908582036040870152610667565b466060850152306080850152600060a085015283810360c085015281808451928381520193019160005b82811061030b57505050500390f35b8351855286955093810193928101926001016102fc565b3461014257602061013a61033d610338366105f8565b611352565b611574565b346101425760807ffffffffffffffffffffffffffffffffffffffffffffffffffffffffffffffffc3601126101425760043567ffffffffffffffff81116101425760a07ffffffffffffffffffffffffffffffffffffffffffffffffffffffffffffffffc8260040192360301126101425760243573ffffffffffffffffffffffffffffffffffffffff8116918282036101425760443567ffffffffffffffff8111610142576103f590369060040161055b565b93906064359485151586036101425761042661041361033d86611352565b9661041f36848661086b565b888861121c565b15610437576104358585610c42565b005b859291610482916040519485947fd491963d000000000000000000000000000000000000000000000000000000008652600486015260248501526060604485015260648401916108d0565b0390fd5b346101425760007ffffffffffffffffffffffffffffffffffffffffffffffffffffffffffffffffc36011261014257602061013a6110f3565b34610142576104356104d0366105f8565b3390610c42565b3461014257602061013a6104ed61015d36610589565b906109f6565b346101425760407ffffffffffffffffffffffffffffffffffffffffffffffffffffffffffffffffc36011261014257602061013a61052f610538565b602435906106c6565b6004359073ffffffffffffffffffffffffffffffffffffffff8216820361014257565b9181601f840112156101425782359167ffffffffffffffff8311610142576020838186019501011161014257565b9060407ffffffffffffffffffffffffffffffffffffffffffffffffffffffffffffffffc8301126101425760043573ffffffffffffffffffffffffffffffffffffffff8116810361014257916024359067ffffffffffffffff8211610142576105f49160040161055b565b9091565b60207ffffffffffffffffffffffffffffffffffffffffffffffffffffffffffffffffc820112610142576004359067ffffffffffffffff8211610142577ffffffffffffffffffffffffffffffffffffffffffffffffffffffffffffffffc8260a0920301126101425760040190565b919082519283825260005b8481106106b15750507fffffffffffffffffffffffffffffffffffffffffffffffffffffffffffffffe0601f8460006020809697860101520116010190565b80602080928401015182828601015201610672565b73ffffffffffffffffffffffffffffffffffffffff1680600052600260205260406000208260005260205260406000206001810154156107ae575460ff1661070d81610aaf565b600281036107335750600052600460205260406000209060005260205260406000205490565b82604051927f22b4be1f0000000000000000000000000000000000000000000000000000000084526004840152602483015261076e81610aaf565b604482015280600260646084930152fd5b7f4e487b7100000000000000000000000000000000000000000000000000000000600052602160045260246000fd5b507ffa8cc26e0000000000000000000000000000000000000000000000000000000060005260045260245260446000fd5b6040810190811067ffffffffffffffff8211176107fb57604052565b7f4e487b7100000000000000000000000000000000000000000000000000000000600052604160045260246000fd5b90601f7fffffffffffffffffffffffffffffffffffffffffffffffffffffffffffffffe0910116810190811067ffffffffffffffff8211176107fb57604052565b92919267ffffffffffffffff82116107fb57604051916108b3601f82017fffffffffffffffffffffffffffffffffffffffffffffffffffffffffffffffe0166020018461082a565b829481845281830111610142578281602093846000960137010152565b601f82602094937fffffffffffffffffffffffffffffffffffffffffffffffffffffffffffffffe0938186528686013760008582860101520116010190565b67ffffffffffffffff81116107fb5760051b60200190565b73ffffffffffffffffffffffffffffffffffffffff1680600052600260205260406000208260005260205260406000206001810154156107ae575460ff1661096e81610aaf565b600181036109aa5750600052600360205260406000209060005260205273ffffffffffffffffffffffffffffffffffffffff6040600020541690565b82604051927f22b4be1f000000000000000000000000000000000000000000000000000000008452600484015260248301526109e581610aaf565b604482015280600160646084930152fd5b73ffffffffffffffffffffffffffffffffffffffff1680600052600260205260406000208260005260205260406000206001810154156107ae575460ff16610a3d81610aaf565b60038103610a635750600052600560205260406000209060005260205260406000205490565b82604051927f22b4be1f00000000000000000000000000000000000000000000000000000000845260048401526024830152610a9e81610aaf565b604482015280600360646084930152fd5b6004111561077f57565b939291602091610ad1916040875260408701916108d0565b930152565b8115610b555760208211610b1f57359060208110610af2575090565b7fffffffffffffffffffffffffffffffffffffffffffffffffffffffffffffffff9060200360031b1b1690565b610482826040519384937f603b97e500000000000000000000000000000000000000000000000000000000855260048501610ab9565b7f3cd69fac0000000000000000000000000000000000000000000000000000000060005260046000fd5b9035907fffffffffffffffffffffffffffffffffffffffffffffffffffffffffffffffe181360301821215610142570180359067ffffffffffffffff821161014257602001918160051b3603831361014257565b9190811015610c135760051b810135907fffffffffffffffffffffffffffffffffffffffffffffffffffffffffffffffc181360301821215610142570190565b7f4e487b7100000000000000000000000000000000000000000000000000000000600052603260045260246000fd5b906040820192610c528484610b7f565b939050610c6f6060820194610c678684610b7f565b9190506112a4565b93610c826080830195610c678785610b7f565b156110c957813546810361109857506020820135924284116110665760005b610cab8885610b7f565b9050811015610e25578086867fc8b554379940a0510c2f82d774aa940f6b18ede065562753235215235f10dcd46020610e0281610cf58f98610cef60019a8e610b7f565b90610bd3565b610d1386610d0c610d0684806112e0565b90610ad6565b809961195c565b8d8973ffffffffffffffffffffffffffffffffffffffff60405192610d37846107df565b828452858401998a521697886000526002855260406000208a600052855260406000209251610d6581610aaf565b610d6e81610aaf565b60ff7fffffffffffffffffffffffffffffffffffffffffffffffffffffffffffffff0085541691161783555191015501610da781611331565b8560005260038452604060002087600052845273ffffffffffffffffffffffffffffffffffffffff604060002091167fffffffffffffffffffffffff0000000000000000000000000000000000000000825416179055611331565b73ffffffffffffffffffffffffffffffffffffffff60405191168152a301610ca1565b509490955060005b610e378784610b7f565b9050811015610f42578085857fcdd414ff52d02ae90ae11c02aeb76df6aff92b1b4063de302891cc569ef2d4d3602080610e77600197610cef8f8c610b7f565b610e8f85610e88610d0684806112e0565b809861195c565b6040518873ffffffffffffffffffffffffffffffffffffffff8e610eb2846107df565b6002845285840198895216968760005260028552604060002089600052855260406000209251610ee181610aaf565b610eea81610aaf565b60ff7fffffffffffffffffffffffffffffffffffffffffffffffffffffffffffffff0085541691161783555191015501358360005260048252604060002085600052825280604060002055604051908152a301610e2d565b50945060005b610f528683610b7f565b905081101561105e5780610f6c600192610cef8986610b7f565b610f79610d0682806112e0565b90610f8586838961195c565b7f3f0d3e0793365f5515f3680c8dbd59417fe8fdf8300acd41c4c42d336b2e968760208060405193610fb6856107df565b60038552818501948a86528873ffffffffffffffffffffffffffffffffffffffff8d16968760005260028552604060002089600052855260406000209251610ffd81610aaf565b61100681610aaf565b60ff7fffffffffffffffffffffffffffffffffffffffffffffffffffffffffffffff0085541691161783555191015501358360005260058252604060002085600052825280604060002055604051908152a301610f48565b505050509050565b837f45e2dc22000000000000000000000000000000000000000000000000000000006000526004524260245260446000fd5b7f21967608000000000000000000000000000000000000000000000000000000006000526004524660245260446000fd5b7f60e8b63a0000000000000000000000000000000000000000000000000000000060005260046000fd5b73ffffffffffffffffffffffffffffffffffffffff7f0000000000000000000000000000000000000000000000000000000000000000163014806111f3575b1561115b577f000000000000000000000000000000000000000000000000000000000000000090565b60405160208101907f8b73c3c69bb8fe3d512ecc4cf759cc79239f7b179b0ffacaa9a75d522b39400f82527f000000000000000000000000000000000000000000000000000000000000000060408201527f000000000000000000000000000000000000000000000000000000000000000060608201524660808201523060a082015260a081526111ed60c08261082a565b51902090565b507f00000000000000000000000000000000000000000000000000000000000000004614611132565b811561129b5773ffffffffffffffffffffffffffffffffffffffff81169384156112915761128457509061124f91611a44565b5090919061125c81610aaf565b15918261126857505090565b73ffffffffffffffffffffffffffffffffffffffff1614919050565b61128e93506115b5565b90565b5050505050600090565b50505050600090565b919082018092116112b157565b7f4e487b7100000000000000000000000000000000000000000000000000000000600052601160045260246000fd5b9035907fffffffffffffffffffffffffffffffffffffffffffffffffffffffffffffffe181360301821215610142570180359067ffffffffffffffff82116101425760200191813603831361014257565b3573ffffffffffffffffffffffffffffffffffffffff811681036101425790565b906113606040830183610b7f565b9061136a826119e1565b9160005b818110611505575050506020815160051b91012061138f6060840184610b7f565b90611399826119e1565b9160005b81811061149e575050506020815160051b9101206113be6080850185610b7f565b906113c8826119e1565b9160005b818110611431575050506020815160051b910120916020604051957fbbdfc01ecb1eefc20b50fabf6a4d527755948223a6c45d9b4a23b0562fb8a1988752803582880152013560408601526060850152608084015260a083015260c080832092369037565b8061143f6001928486610bd3565b602061145461144e83806112e0565b90611b22565b91604051927f71b24f5dd7f650e1989d26dc6ee7af2310c3f8e855067842f76482102e9135a8600052825201356040526060600020906040526114978287611a30565b52016113cc565b806114ac6001928486610bd3565b60206114bb61144e83806112e0565b91604051927fa77f64c7e3d471618c6def4e3128fd8d31182a94a63fe2e7bba9f54717d1296d600052825201356040526060600020906040526114fe8287611a30565b520161139d565b806115136001928486610bd3565b61152c602061152561144e84806112e0565b9201611331565b604051917fe9cc1af404fbf6d961f600f72c98af984e9f2a854c58d6e7d0e2c9ebcea4a92f60005260205260405260606000209060405261156d8287611a30565b520161136e565b60429061157f6110f3565b90604051917f19010000000000000000000000000000000000000000000000000000000000008352600283015260228201522090565b9173ffffffffffffffffffffffffffffffffffffffff83169262010000841061129b573b156116ea57611627926020926040518095819482937f1626ba7e0000000000000000000000000000000000000000000000000000000084526004840152604060248401526044830190610667565b03915afa8091600091611688575b50906116415750600090565b7fffffffff00000000000000000000000000000000000000000000000000000000167f1626ba7e000000000000000000000000000000000000000000000000000000001490565b6020813d6020116116e2575b816116a16020938361082a565b810103126116de5751907fffffffff00000000000000000000000000000000000000000000000000000000821682036116db575038611635565b80fd5b5080fd5b3d9150611694565b505050600090565b60ff81146117745760ff811690601f821161174a576040805192611716828561082a565b602084527fffffffffffffffffffffffffffffffffffffffffffffffffffffffffffffffe060208501920136833783525290565b7fb3512b0c0000000000000000000000000000000000000000000000000000000060005260046000fd5b5060405160008054908160011c91600181168015611880575b60208410811461185357838552849291811561181657506001146117b8575b61128e9250038261082a565b50600080805290917f290decd9548b62a8d60345a988386fc84ba6bc95484008f6362f93160ef3e5635b8183106117fa57505090602061128e928201016117ac565b60209193508060019154838588010152019101909183926117e2565b6020925061128e9491507fffffffffffffffffffffffffffffffffffffffffffffffffffffffffffffff001682840152151560051b8201016117ac565b6024837f4e487b710000000000000000000000000000000000000000000000000000000081526022600452fd5b92607f169261178d565b60ff81146118ae5760ff811690601f821161174a576040805192611716828561082a565b506040516000600154908160011c91600181168015611952575b60208410811461185357838552849291811561181657506001146118f25761128e9250038261082a565b506001600090815290917fb10e2d527612073b26eecdfd717e6a320cf44b4afac2b0732d9fcbe2b7fa0cf65b81831061193657505090602061128e928201016117ac565b602091935080600191548385880101520191019091839261191e565b92607f16926118c8565b73ffffffffffffffffffffffffffffffffffffffff169182600052600260205260406000208260005260205260016040600020015491828211156119a05750505050565b60849450604051937fee5646c00000000000000000000000000000000000000000000000000000000085526004850152602484015260448301526064820152fd5b906119eb8261090f565b6119f8604051918261082a565b8281527fffffffffffffffffffffffffffffffffffffffffffffffffffffffffffffffe0611a26829461090f565b0190602036910137565b8051821015610c135760209160051b010190565b8151919060418303611a7557611a6e92506020820151906060604084015193015160001a90611a80565b9192909190565b505060009160029190565b91907f7fffffffffffffffffffffffffffffff5d576e7357a4501ddfe92f46681b20a08411611b16579160209360809260ff60009560405194855216868401526040830152606082015282805260015afa15611b0a5760005173ffffffffffffffffffffffffffffffffffffffff811615611afe5790600090600090565b50600090600190600090565b6040513d6000823e3d90fd5b50505060009160039190565b908015610b555760208111611b475790611b3d91369161086b565b6020815191012090565b90610482826040519384937f603b97e500000000000000000000000000000000000000000000000000000000855260048501610ab956fea26469706673582212205fc16ff9873b9c2e94bc0f5e1feef7eab5c6b03f2168127e673d08025f2c0b1764736f6c63430008230033","linkReferences":{}},"methodIdentifiers":{"DOMAIN_SEPARATOR()":"3644e515","__OFF_CHAIN__hash_config((uint256,uint256,(string,address)[],(string,bytes32)[],(string,uint256)[]))":"5ec5d860","eip712Domain()":"84b0196e","read_address(address,bytes32)":"c0ae5c86","read_address(address,string)":"db6be1e4","read_bytes32(address,bytes32)":"0349a4a8","read_bytes32(address,string)":"905a787d","read_uint(address,bytes32)":"dd6d1250","read_uint(address,string)":"06631b68","write_config((uint256,uint256,(string,address)[],(string,bytes32)[],(string,uint256)[]))":"35ca51e6","write_config_as((uint256,uint256,(string,address)[],(string,bytes32)[],(string,uint256)[]),address,bytes,bool)":"46a3c3bb"},"id":31}